{
  "contractName": "RTFToken",
  "abi": [
    {
      "inputs": [
        {
          "internalType": "string",
          "name": "name",
          "type": "string"
        },
        {
          "internalType": "string",
          "name": "symbol",
          "type": "string"
        },
        {
          "internalType": "string",
          "name": "baseURI",
          "type": "string"
        }
      ],
      "stateMutability": "nonpayable",
      "type": "constructor"
    },
    {
      "anonymous": false,
      "inputs": [
        {
          "indexed": true,
          "internalType": "address",
          "name": "owner",
          "type": "address"
        },
        {
          "indexed": true,
          "internalType": "address",
          "name": "approved",
          "type": "address"
        },
        {
          "indexed": true,
          "internalType": "uint256",
          "name": "tokenId",
          "type": "uint256"
        }
      ],
      "name": "Approval",
      "type": "event"
    },
    {
      "anonymous": false,
      "inputs": [
        {
          "indexed": true,
          "internalType": "address",
          "name": "owner",
          "type": "address"
        },
        {
          "indexed": true,
          "internalType": "address",
          "name": "operator",
          "type": "address"
        },
        {
          "indexed": false,
          "internalType": "bool",
          "name": "approved",
          "type": "bool"
        }
      ],
      "name": "ApprovalForAll",
      "type": "event"
    },
    {
      "anonymous": false,
      "inputs": [
        {
          "indexed": true,
          "internalType": "bytes32",
          "name": "role",
          "type": "bytes32"
        },
        {
          "indexed": true,
          "internalType": "bytes32",
          "name": "previousAdminRole",
          "type": "bytes32"
        },
        {
          "indexed": true,
          "internalType": "bytes32",
          "name": "newAdminRole",
          "type": "bytes32"
        }
      ],
      "name": "RoleAdminChanged",
      "type": "event"
    },
    {
      "anonymous": false,
      "inputs": [
        {
          "indexed": true,
          "internalType": "bytes32",
          "name": "role",
          "type": "bytes32"
        },
        {
          "indexed": true,
          "internalType": "address",
          "name": "account",
          "type": "address"
        },
        {
          "indexed": true,
          "internalType": "address",
          "name": "sender",
          "type": "address"
        }
      ],
      "name": "RoleGranted",
      "type": "event"
    },
    {
      "anonymous": false,
      "inputs": [
        {
          "indexed": true,
          "internalType": "bytes32",
          "name": "role",
          "type": "bytes32"
        },
        {
          "indexed": true,
          "internalType": "address",
          "name": "account",
          "type": "address"
        },
        {
          "indexed": true,
          "internalType": "address",
          "name": "sender",
          "type": "address"
        }
      ],
      "name": "RoleRevoked",
      "type": "event"
    },
    {
      "anonymous": false,
      "inputs": [
        {
          "indexed": true,
          "internalType": "address",
          "name": "from",
          "type": "address"
        },
        {
          "indexed": true,
          "internalType": "address",
          "name": "to",
          "type": "address"
        },
        {
          "indexed": true,
          "internalType": "uint256",
          "name": "tokenId",
          "type": "uint256"
        }
      ],
      "name": "Transfer",
      "type": "event"
    },
    {
      "inputs": [],
      "name": "BURNER_ROLE",
      "outputs": [
        {
          "internalType": "bytes32",
          "name": "",
          "type": "bytes32"
        }
      ],
      "stateMutability": "view",
      "type": "function"
    },
    {
      "inputs": [],
      "name": "DEFAULT_ADMIN_ROLE",
      "outputs": [
        {
          "internalType": "bytes32",
          "name": "",
          "type": "bytes32"
        }
      ],
      "stateMutability": "view",
      "type": "function"
    },
    {
      "inputs": [],
      "name": "MINTER_ROLE",
      "outputs": [
        {
          "internalType": "bytes32",
          "name": "",
          "type": "bytes32"
        }
      ],
      "stateMutability": "view",
      "type": "function"
    },
    {
      "inputs": [
        {
          "internalType": "address",
          "name": "to",
          "type": "address"
        },
        {
          "internalType": "uint256",
          "name": "tokenId",
          "type": "uint256"
        }
      ],
      "name": "approve",
      "outputs": [],
      "stateMutability": "nonpayable",
      "type": "function"
    },
    {
      "inputs": [
        {
          "internalType": "address",
          "name": "owner",
          "type": "address"
        }
      ],
      "name": "balanceOf",
      "outputs": [
        {
          "internalType": "uint256",
          "name": "",
          "type": "uint256"
        }
      ],
      "stateMutability": "view",
      "type": "function"
    },
    {
      "inputs": [],
      "name": "baseURI",
      "outputs": [
        {
          "internalType": "string",
          "name": "",
          "type": "string"
        }
      ],
      "stateMutability": "view",
      "type": "function"
    },
    {
      "inputs": [
        {
          "internalType": "uint256",
          "name": "",
          "type": "uint256"
        }
      ],
      "name": "characters",
      "outputs": [
        {
          "internalType": "string",
          "name": "firstName",
          "type": "string"
        },
        {
          "internalType": "string",
          "name": "lastName",
          "type": "string"
        },
        {
          "internalType": "string",
          "name": "middleName",
          "type": "string"
        },
        {
          "internalType": "uint256",
          "name": "dateOfBirth",
          "type": "uint256"
        },
        {
          "internalType": "string",
          "name": "nationality",
          "type": "string"
        },
        {
          "internalType": "string",
          "name": "gender",
          "type": "string"
        },
        {
          "internalType": "string",
          "name": "specialization",
          "type": "string"
        }
      ],
      "stateMutability": "view",
      "type": "function"
    },
    {
      "inputs": [
        {
          "internalType": "uint256",
          "name": "tokenId",
          "type": "uint256"
        }
      ],
      "name": "getApproved",
      "outputs": [
        {
          "internalType": "address",
          "name": "",
          "type": "address"
        }
      ],
      "stateMutability": "view",
      "type": "function"
    },
    {
      "inputs": [
        {
          "internalType": "bytes32",
          "name": "role",
          "type": "bytes32"
        }
      ],
      "name": "getRoleAdmin",
      "outputs": [
        {
          "internalType": "bytes32",
          "name": "",
          "type": "bytes32"
        }
      ],
      "stateMutability": "view",
      "type": "function"
    },
    {
      "inputs": [
        {
          "internalType": "bytes32",
          "name": "role",
          "type": "bytes32"
        },
        {
          "internalType": "address",
          "name": "account",
          "type": "address"
        }
      ],
      "name": "grantRole",
      "outputs": [],
      "stateMutability": "nonpayable",
      "type": "function"
    },
    {
      "inputs": [
        {
          "internalType": "bytes32",
          "name": "role",
          "type": "bytes32"
        },
        {
          "internalType": "address",
          "name": "account",
          "type": "address"
        }
      ],
      "name": "hasRole",
      "outputs": [
        {
          "internalType": "bool",
          "name": "",
          "type": "bool"
        }
      ],
      "stateMutability": "view",
      "type": "function"
    },
    {
      "inputs": [
        {
          "internalType": "address",
          "name": "owner",
          "type": "address"
        },
        {
          "internalType": "address",
          "name": "operator",
          "type": "address"
        }
      ],
      "name": "isApprovedForAll",
      "outputs": [
        {
          "internalType": "bool",
          "name": "",
          "type": "bool"
        }
      ],
      "stateMutability": "view",
      "type": "function"
    },
    {
      "inputs": [],
      "name": "name",
      "outputs": [
        {
          "internalType": "string",
          "name": "",
          "type": "string"
        }
      ],
      "stateMutability": "view",
      "type": "function"
    },
    {
      "inputs": [
        {
          "internalType": "uint256",
          "name": "tokenId",
          "type": "uint256"
        }
      ],
      "name": "ownerOf",
      "outputs": [
        {
          "internalType": "address",
          "name": "",
          "type": "address"
        }
      ],
      "stateMutability": "view",
      "type": "function"
    },
    {
      "inputs": [
        {
          "internalType": "bytes32",
          "name": "role",
          "type": "bytes32"
        },
        {
          "internalType": "address",
          "name": "account",
          "type": "address"
        }
      ],
      "name": "renounceRole",
      "outputs": [],
      "stateMutability": "nonpayable",
      "type": "function"
    },
    {
      "inputs": [
        {
          "internalType": "bytes32",
          "name": "role",
          "type": "bytes32"
        },
        {
          "internalType": "address",
          "name": "account",
          "type": "address"
        }
      ],
      "name": "revokeRole",
      "outputs": [],
      "stateMutability": "nonpayable",
      "type": "function"
    },
    {
      "inputs": [
        {
          "internalType": "address",
          "name": "from",
          "type": "address"
        },
        {
          "internalType": "address",
          "name": "to",
          "type": "address"
        },
        {
          "internalType": "uint256",
          "name": "tokenId",
          "type": "uint256"
        }
      ],
      "name": "safeTransferFrom",
      "outputs": [],
      "stateMutability": "nonpayable",
      "type": "function"
    },
    {
      "inputs": [
        {
          "internalType": "address",
          "name": "from",
          "type": "address"
        },
        {
          "internalType": "address",
          "name": "to",
          "type": "address"
        },
        {
          "internalType": "uint256",
          "name": "tokenId",
          "type": "uint256"
        },
        {
          "internalType": "bytes",
          "name": "_data",
          "type": "bytes"
        }
      ],
      "name": "safeTransferFrom",
      "outputs": [],
      "stateMutability": "nonpayable",
      "type": "function"
    },
    {
      "inputs": [
        {
          "internalType": "address",
          "name": "operator",
          "type": "address"
        },
        {
          "internalType": "bool",
          "name": "approved",
          "type": "bool"
        }
      ],
      "name": "setApprovalForAll",
      "outputs": [],
      "stateMutability": "nonpayable",
      "type": "function"
    },
    {
      "inputs": [],
      "name": "symbol",
      "outputs": [
        {
          "internalType": "string",
          "name": "",
          "type": "string"
        }
      ],
      "stateMutability": "view",
      "type": "function"
    },
    {
      "inputs": [
        {
          "internalType": "address",
          "name": "from",
          "type": "address"
        },
        {
          "internalType": "address",
          "name": "to",
          "type": "address"
        },
        {
          "internalType": "uint256",
          "name": "tokenId",
          "type": "uint256"
        }
      ],
      "name": "transferFrom",
      "outputs": [],
      "stateMutability": "nonpayable",
      "type": "function"
    },
    {
      "inputs": [
        {
          "internalType": "address",
          "name": "recipient",
          "type": "address"
        },
        {
          "internalType": "uint256",
          "name": "tokenID",
          "type": "uint256"
        },
        {
          "internalType": "string",
          "name": "data",
          "type": "string"
        }
      ],
      "name": "mint",
      "outputs": [],
      "stateMutability": "nonpayable",
      "type": "function"
    },
    {
      "inputs": [
        {
          "internalType": "uint256",
          "name": "tokenID",
          "type": "uint256"
        }
      ],
      "name": "burn",
      "outputs": [],
      "stateMutability": "nonpayable",
      "type": "function"
    },
    {
      "inputs": [
        {
          "internalType": "uint256",
          "name": "tokenId",
          "type": "uint256"
        }
      ],
      "name": "tokenURI",
      "outputs": [
        {
          "internalType": "string",
          "name": "",
          "type": "string"
        }
      ],
      "stateMutability": "view",
      "type": "function"
    },
    {
      "inputs": [
        {
          "internalType": "bytes4",
          "name": "interfaceId",
          "type": "bytes4"
        }
      ],
      "name": "supportsInterface",
      "outputs": [
        {
          "internalType": "bool",
          "name": "",
          "type": "bool"
        }
      ],
      "stateMutability": "view",
      "type": "function"
    }
  ],
  "bytecode": "60806040523480156200001157600080fd5b506040516200279a3803806200279a833981016040819052620000349162000258565b8282600062000044838262000378565b50600162000053828262000378565b506200006591506000905033620000d1565b620000917f9f2df0fed2c77648de5860a4cc508cd0818c85b8b8a1ab4ceeef8d981c8956a633620000d1565b620000bd7f3c11d16cbaffd01df69ce1c404f6340ee057498f5f00246190ea54220576a84833620000d1565b620000c881620000e1565b50505062000444565b620000dd8282620000ef565b5050565b6008620000dd828262000378565b60008281526007602090815260408083206001600160a01b038516845290915290205460ff16620000dd5760008281526007602090815260408083206001600160a01b03851684529091529020805460ff191660011790556200014f3390565b6001600160a01b0316816001600160a01b0316837f2f8788117e7eff1d82e926ec794901d17c78024a50270940304540a733656f0d60405160405180910390a45050565b634e487b7160e01b600052604160045260246000fd5b600082601f830112620001bb57600080fd5b81516001600160401b0380821115620001d857620001d862000193565b604051601f8301601f19908116603f0116810190828211818310171562000203576200020362000193565b816040528381526020925086838588010111156200022057600080fd5b600091505b8382101562000244578582018301518183018401529082019062000225565b600093810190920192909252949350505050565b6000806000606084860312156200026e57600080fd5b83516001600160401b03808211156200028657600080fd5b6200029487838801620001a9565b94506020860151915080821115620002ab57600080fd5b620002b987838801620001a9565b93506040860151915080821115620002d057600080fd5b50620002df86828701620001a9565b9150509250925092565b600181811c90821680620002fe57607f821691505b6020821081036200031f57634e487b7160e01b600052602260045260246000fd5b50919050565b601f8211156200037357600081815260208120601f850160051c810160208610156200034e5750805b601f850160051c820191505b818110156200036f578281556001016200035a565b5050505b505050565b81516001600160401b0381111562000394576200039462000193565b620003ac81620003a58454620002e9565b8462000325565b602080601f831160018114620003e45760008415620003cb5750858301515b600019600386901b1c1916600185901b1785556200036f565b600085815260208120601f198616915b828110156200041557888601518255948401946001909101908401620003f4565b5085821015620004345787850151600019600388901b60f8161c191681555b5050505050600190811b01905550565b61234680620004546000396000f3fe608060405234801561001057600080fd5b50600436106101435760003560e01c80636352211e116100be5780636352211e146102a25780636c0360eb146102b557806370a08231146102bd57806391d14854146102d057806395d89b41146102e3578063a217fddf146102eb578063a22cb465146102f3578063b88d4fde14610306578063c87b56dd14610319578063d3fc98641461032c578063d53913931461033f578063d547741f14610366578063e985e9c51461037957600080fd5b806301ffc9a71461014857806306fdde0314610170578063081812fc14610185578063095ea7b3146101b057806323b872dd146101c5578063248a9ca3146101d8578063282c51f3146102095780632f2ff15d1461023057806336568abe1461024357806342842e0e1461025657806342966c68146102695780634810bc591461027c575b600080fd5b61015b610156366004611b76565b61038c565b60405190151581526020015b60405180910390f35b61017861039d565b6040516101679190611be3565b610198610193366004611bf6565b61042f565b6040516001600160a01b039091168152602001610167565b6101c36101be366004611c2b565b6104bc565b005b6101c36101d3366004611c55565b6105cc565b6101fb6101e6366004611bf6565b60009081526007602052604090206001015490565b604051908152602001610167565b6101fb7f3c11d16cbaffd01df69ce1c404f6340ee057498f5f00246190ea54220576a84881565b6101c361023e366004611c91565b6105fd565b6101c3610251366004611c91565b610622565b6101c3610264366004611c55565b6106a0565b6101c3610277366004611bf6565b6106bb565b61028f61028a366004611bf6565b6106ee565b6040516101679796959493929190611cbd565b6101986102b0366004611bf6565b610a70565b610178610ae7565b6101fb6102cb366004611d46565b610b75565b61015b6102de366004611c91565b610bfc565b610178610c27565b6101fb600081565b6101c3610301366004611d61565b610c36565b6101c3610314366004611e28565b610c41565b610178610327366004611bf6565b610c79565b6101c361033a366004611ea3565b610c84565b6101fb7f9f2df0fed2c77648de5860a4cc508cd0818c85b8b8a1ab4ceeef8d981c8956a681565b6101c3610374366004611c91565b610cc2565b61015b610387366004611f0d565b610ce7565b600061039782610d15565b92915050565b6060600080546103ac90611f37565b80601f01602080910402602001604051908101604052809291908181526020018280546103d890611f37565b80156104255780601f106103fa57610100808354040283529160200191610425565b820191906000526020600020905b81548152906001019060200180831161040857829003601f168201915b5050505050905090565b600061043a82610d3a565b6104a05760405162461bcd60e51b815260206004820152602c60248201527f4552433732313a20617070726f76656420717565727920666f72206e6f6e657860448201526b34b9ba32b73a103a37b5b2b760a11b60648201526084015b60405180910390fd5b506000908152600460205260409020546001600160a01b031690565b60006104c782610a70565b9050806001600160a01b0316836001600160a01b0316036105345760405162461bcd60e51b815260206004820152602160248201527f4552433732313a20617070726f76616c20746f2063757272656e74206f776e656044820152603960f91b6064820152608401610497565b336001600160a01b038216148061055057506105508133610ce7565b6105bd5760405162461bcd60e51b815260206004820152603860248201527f4552433732313a20617070726f76652063616c6c6572206973206e6f74206f776044820152771b995c881b9bdc88185c1c1c9bdd995908199bdc88185b1b60421b6064820152608401610497565b6105c78383610d57565b505050565b6105d63382610dc5565b6105f25760405162461bcd60e51b815260040161049790611f71565b6105c7838383610e8f565b60008281526007602052604090206001015461061881611019565b6105c78383611026565b6001600160a01b03811633146106925760405162461bcd60e51b815260206004820152602f60248201527f416363657373436f6e74726f6c3a2063616e206f6e6c792072656e6f756e636560448201526e103937b632b9903337b91039b2b63360891b6064820152608401610497565b61069c82826110ac565b5050565b6105c783838360405180602001604052806000815250610c41565b7f3c11d16cbaffd01df69ce1c404f6340ee057498f5f00246190ea54220576a8486106e581611019565b61069c82611113565b600981815481106106fe57600080fd5b906000526020600020906007020160009150905080600001805461072190611f37565b80601f016020809104026020016040519081016040528092919081815260200182805461074d90611f37565b801561079a5780601f1061076f5761010080835404028352916020019161079a565b820191906000526020600020905b81548152906001019060200180831161077d57829003601f168201915b5050505050908060010180546107af90611f37565b80601f01602080910402602001604051908101604052809291908181526020018280546107db90611f37565b80156108285780601f106107fd57610100808354040283529160200191610828565b820191906000526020600020905b81548152906001019060200180831161080b57829003601f168201915b50505050509080600201805461083d90611f37565b80601f016020809104026020016040519081016040528092919081815260200182805461086990611f37565b80156108b65780601f1061088b576101008083540402835291602001916108b6565b820191906000526020600020905b81548152906001019060200180831161089957829003601f168201915b5050505050908060030154908060040180546108d190611f37565b80601f01602080910402602001604051908101604052809291908181526020018280546108fd90611f37565b801561094a5780601f1061091f5761010080835404028352916020019161094a565b820191906000526020600020905b81548152906001019060200180831161092d57829003601f168201915b50505050509080600501805461095f90611f37565b80601f016020809104026020016040519081016040528092919081815260200182805461098b90611f37565b80156109d85780601f106109ad576101008083540402835291602001916109d8565b820191906000526020600020905b8154815290600101906020018083116109bb57829003601f168201915b5050505050908060060180546109ed90611f37565b80601f0160208091040260200160405190810160405280929190818152602001828054610a1990611f37565b8015610a665780601f10610a3b57610100808354040283529160200191610a66565b820191906000526020600020905b815481529060010190602001808311610a4957829003601f168201915b5050505050905087565b6000818152600260205260408120546001600160a01b0316806103975760405162461bcd60e51b815260206004820152602960248201527f4552433732313a206f776e657220717565727920666f72206e6f6e657869737460448201526832b73a103a37b5b2b760b91b6064820152608401610497565b60088054610af490611f37565b80601f0160208091040260200160405190810160405280929190818152602001828054610b2090611f37565b8015610b6d5780601f10610b4257610100808354040283529160200191610b6d565b820191906000526020600020905b815481529060010190602001808311610b5057829003601f168201915b505050505081565b60006001600160a01b038216610be05760405162461bcd60e51b815260206004820152602a60248201527f4552433732313a2062616c616e636520717565727920666f7220746865207a65604482015269726f206164647265737360b01b6064820152608401610497565b506001600160a01b031660009081526003602052604090205490565b60009182526007602090815260408084206001600160a01b0393909316845291905290205460ff1690565b6060600180546103ac90611f37565b61069c33838361111c565b610c4b3383610dc5565b610c675760405162461bcd60e51b815260040161049790611f71565b610c73848484846111e6565b50505050565b606061039782611219565b7f9f2df0fed2c77648de5860a4cc508cd0818c85b8b8a1ab4ceeef8d981c8956a6610cae81611019565b610cb8848461137a565b610c73838361149b565b600082815260076020526040902060010154610cdd81611019565b6105c783836110ac565b6001600160a01b03918216600090815260056020908152604080832093909416825291909152205460ff1690565b60006001600160e01b03198216637965db0b60e01b148061039757506103978261151f565b6000908152600260205260409020546001600160a01b0316151590565b600081815260046020526040902080546001600160a01b0319166001600160a01b0384169081179091558190610d8c82610a70565b6001600160a01b03167f8c5be1e5ebec7d5bd14f71427d1e84f3dd0314c0f7b2291e5b200ac8c7c3b92560405160405180910390a45050565b6000610dd082610d3a565b610e315760405162461bcd60e51b815260206004820152602c60248201527f4552433732313a206f70657261746f7220717565727920666f72206e6f6e657860448201526b34b9ba32b73a103a37b5b2b760a11b6064820152608401610497565b6000610e3c83610a70565b9050806001600160a01b0316846001600160a01b03161480610e635750610e638185610ce7565b80610e875750836001600160a01b0316610e7c8461042f565b6001600160a01b0316145b949350505050565b826001600160a01b0316610ea282610a70565b6001600160a01b031614610f065760405162461bcd60e51b815260206004820152602560248201527f4552433732313a207472616e736665722066726f6d20696e636f72726563742060448201526437bbb732b960d91b6064820152608401610497565b6001600160a01b038216610f685760405162461bcd60e51b8152602060048201526024808201527f4552433732313a207472616e7366657220746f20746865207a65726f206164646044820152637265737360e01b6064820152608401610497565b610f73600082610d57565b6001600160a01b0383166000908152600360205260408120805460019290610f9c908490611fd8565b90915550506001600160a01b0382166000908152600360205260408120805460019290610fca908490611feb565b909155505060008181526002602052604080822080546001600160a01b0319166001600160a01b0386811691821790925591518493918716916000805160206122f183398151915291a4505050565b611023813361156f565b50565b6110308282610bfc565b61069c5760008281526007602090815260408083206001600160a01b03851684529091529020805460ff191660011790556110683390565b6001600160a01b0316816001600160a01b0316837f2f8788117e7eff1d82e926ec794901d17c78024a50270940304540a733656f0d60405160405180910390a45050565b6110b68282610bfc565b1561069c5760008281526007602090815260408083206001600160a01b0385168085529252808320805460ff1916905551339285917ff6391f5c32d9c69d2a47ea670b442974b53935d1edc7fd64eb21e047a839171b9190a45050565b611023816115d3565b816001600160a01b0316836001600160a01b0316036111795760405162461bcd60e51b815260206004820152601960248201527822a9219b99189d1030b8383937bb32903a379031b0b63632b960391b6044820152606401610497565b6001600160a01b03838116600081815260056020908152604080832094871680845294825291829020805460ff191686151590811790915591519182527f17307eab39ab6107e8899845ad3d59bd9653f200f220920489ca2b5937696c31910160405180910390a3505050565b6111f1848484610e8f565b6111fd84848484611613565b610c735760405162461bcd60e51b815260040161049790611ffe565b606061122482610d3a565b61128a5760405162461bcd60e51b815260206004820152603160248201527f45524337323155524953746f726167653a2055524920717565727920666f72206044820152703737b732bc34b9ba32b73a103a37b5b2b760791b6064820152608401610497565b600082815260066020526040812080546112a390611f37565b80601f01602080910402602001604051908101604052809291908181526020018280546112cf90611f37565b801561131c5780601f106112f15761010080835404028352916020019161131c565b820191906000526020600020905b8154815290600101906020018083116112ff57829003601f168201915b50505050509050600061132d611714565b9050805160000361133f575092915050565b815115611371578082604051602001611359929190612050565b60405160208183030381529060405292505050919050565b610e8784611723565b6001600160a01b0382166113d05760405162461bcd60e51b815260206004820181905260248201527f4552433732313a206d696e7420746f20746865207a65726f20616464726573736044820152606401610497565b6113d981610d3a565b156114265760405162461bcd60e51b815260206004820152601c60248201527f4552433732313a20746f6b656e20616c7265616479206d696e746564000000006044820152606401610497565b6001600160a01b038216600090815260036020526040812080546001929061144f908490611feb565b909155505060008181526002602052604080822080546001600160a01b0319166001600160a01b03861690811790915590518392906000805160206122f1833981519152908290a45050565b6114a482610d3a565b6115075760405162461bcd60e51b815260206004820152602e60248201527f45524337323155524953746f726167653a2055524920736574206f66206e6f6e60448201526d32bc34b9ba32b73a103a37b5b2b760911b6064820152608401610497565b60008281526006602052604090206105c782826120cd565b60006001600160e01b031982166380ac58cd60e01b148061155057506001600160e01b03198216635b5e139f60e01b145b8061039757506301ffc9a760e01b6001600160e01b0319831614610397565b6115798282610bfc565b61069c57611591816001600160a01b031660146117ee565b61159c8360206117ee565b6040516020016115ad92919061218c565b60408051601f198184030181529082905262461bcd60e51b825261049791600401611be3565b6115dc81611989565b600081815260066020526040902080546115f590611f37565b15905061102357600081815260066020526040812061102391611b12565b60006001600160a01b0384163b1561170957604051630a85bd0160e11b81526001600160a01b0385169063150b7a02906116579033908990889088906004016121fb565b6020604051808303816000875af1925050508015611692575060408051601f3d908101601f1916820190925261168f91810190612238565b60015b6116ef573d8080156116c0576040519150601f19603f3d011682016040523d82523d6000602084013e6116c5565b606091505b5080516000036116e75760405162461bcd60e51b815260040161049790611ffe565b805181602001fd5b6001600160e01b031916630a85bd0160e11b149050610e87565b506001949350505050565b6060600880546103ac90611f37565b606061172e82610d3a565b6117925760405162461bcd60e51b815260206004820152602f60248201527f4552433732314d657461646174613a2055524920717565727920666f72206e6f60448201526e3732bc34b9ba32b73a103a37b5b2b760891b6064820152608401610497565b600061179c611714565b905060008151116117bc57604051806020016040528060008152506117e7565b806117c684611a12565b6040516020016117d7929190612050565b6040516020818303038152906040525b9392505050565b606060006117fd836002612255565b611808906002611feb565b6001600160401b0381111561181f5761181f611d9d565b6040519080825280601f01601f191660200182016040528015611849576020820181803683370190505b509050600360fc1b816000815181106118645761186461226c565b60200101906001600160f81b031916908160001a905350600f60fb1b816001815181106118935761189361226c565b60200101906001600160f81b031916908160001a90535060006118b7846002612255565b6118c2906001611feb565b90505b600181111561193a576f181899199a1a9b1b9c1cb0b131b232b360811b85600f16601081106118f6576118f661226c565b1a60f81b82828151811061190c5761190c61226c565b60200101906001600160f81b031916908160001a90535060049490941c9361193381612282565b90506118c5565b5083156117e75760405162461bcd60e51b815260206004820181905260248201527f537472696e67733a20686578206c656e67746820696e73756666696369656e746044820152606401610497565b600061199482610a70565b90506119a1600083610d57565b6001600160a01b03811660009081526003602052604081208054600192906119ca908490611fd8565b909155505060008281526002602052604080822080546001600160a01b0319169055518391906001600160a01b038416906000805160206122f1833981519152908390a45050565b606081600003611a395750506040805180820190915260018152600360fc1b602082015290565b8160005b8115611a635780611a4d81612299565b9150611a5c9050600a836122c8565b9150611a3d565b6000816001600160401b03811115611a7d57611a7d611d9d565b6040519080825280601f01601f191660200182016040528015611aa7576020820181803683370190505b5090505b8415610e8757611abc600183611fd8565b9150611ac9600a866122dc565b611ad4906030611feb565b60f81b818381518110611ae957611ae961226c565b60200101906001600160f81b031916908160001a905350611b0b600a866122c8565b9450611aab565b508054611b1e90611f37565b6000825580601f10611b2e575050565b601f01602090049060005260206000209081019061102391905b80821115611b5c5760008155600101611b48565b5090565b6001600160e01b03198116811461102357600080fd5b600060208284031215611b8857600080fd5b81356117e781611b60565b60005b83811015611bae578181015183820152602001611b96565b50506000910152565b60008151808452611bcf816020860160208601611b93565b601f01601f19169290920160200192915050565b6020815260006117e76020830184611bb7565b600060208284031215611c0857600080fd5b5035919050565b80356001600160a01b0381168114611c2657600080fd5b919050565b60008060408385031215611c3e57600080fd5b611c4783611c0f565b946020939093013593505050565b600080600060608486031215611c6a57600080fd5b611c7384611c0f565b9250611c8160208501611c0f565b9150604084013590509250925092565b60008060408385031215611ca457600080fd5b82359150611cb460208401611c0f565b90509250929050565b60e081526000611cd060e083018a611bb7565b8281036020840152611ce2818a611bb7565b90508281036040840152611cf68189611bb7565b90508660608401528281036080840152611d108187611bb7565b905082810360a0840152611d248186611bb7565b905082810360c0840152611d388185611bb7565b9a9950505050505050505050565b600060208284031215611d5857600080fd5b6117e782611c0f565b60008060408385031215611d7457600080fd5b611d7d83611c0f565b915060208301358015158114611d9257600080fd5b809150509250929050565b634e487b7160e01b600052604160045260246000fd5b60006001600160401b0380841115611dcd57611dcd611d9d565b604051601f8501601f19908116603f01168101908282118183101715611df557611df5611d9d565b81604052809350858152868686011115611e0e57600080fd5b858560208301376000602087830101525050509392505050565b60008060008060808587031215611e3e57600080fd5b611e4785611c0f565b9350611e5560208601611c0f565b92506040850135915060608501356001600160401b03811115611e7757600080fd5b8501601f81018713611e8857600080fd5b611e9787823560208401611db3565b91505092959194509250565b600080600060608486031215611eb857600080fd5b611ec184611c0f565b92506020840135915060408401356001600160401b03811115611ee357600080fd5b8401601f81018613611ef457600080fd5b611f0386823560208401611db3565b9150509250925092565b60008060408385031215611f2057600080fd5b611f2983611c0f565b9150611cb460208401611c0f565b600181811c90821680611f4b57607f821691505b602082108103611f6b57634e487b7160e01b600052602260045260246000fd5b50919050565b60208082526031908201527f4552433732313a207472616e736665722063616c6c6572206973206e6f74206f6040820152701ddb995c881b9bdc88185c1c1c9bdd9959607a1b606082015260800190565b634e487b7160e01b600052601160045260246000fd5b8181038181111561039757610397611fc2565b8082018082111561039757610397611fc2565b60208082526032908201527f4552433732313a207472616e7366657220746f206e6f6e20455243373231526560408201527131b2b4bb32b91034b6b83632b6b2b73a32b960711b606082015260800190565b60008351612062818460208801611b93565b835190830190612076818360208801611b93565b01949350505050565b601f8211156105c757600081815260208120601f850160051c810160208610156120a65750805b601f850160051c820191505b818110156120c5578281556001016120b2565b505050505050565b81516001600160401b038111156120e6576120e6611d9d565b6120fa816120f48454611f37565b8461207f565b602080601f83116001811461212f57600084156121175750858301515b600019600386901b1c1916600185901b1785556120c5565b600085815260208120601f198616915b8281101561215e5788860151825594840194600190910190840161213f565b508582101561217c5787850151600019600388901b60f8161c191681555b5050505050600190811b01905550565b76020b1b1b2b9b9a1b7b73a3937b61d1030b1b1b7bab73a1604d1b8152600083516121be816017850160208801611b93565b7001034b99036b4b9b9b4b733903937b6329607d1b60179184019182015283516121ef816028840160208801611b93565b01602801949350505050565b6001600160a01b038581168252841660208201526040810183905260806060820181905260009061222e90830184611bb7565b9695505050505050565b60006020828403121561224a57600080fd5b81516117e781611b60565b808202811582820484141761039757610397611fc2565b634e487b7160e01b600052603260045260246000fd5b60008161229157612291611fc2565b506000190190565b6000600182016122ab576122ab611fc2565b5060010190565b634e487b7160e01b600052601260045260246000fd5b6000826122d7576122d76122b2565b500490565b6000826122eb576122eb6122b2565b50069056feddf252ad1be2c89b69c2b068fc378daa952ba7f163c4a11628f55a4df523b3efa26469706673582212201d21d2df095f295d15c2a1cac5c91932988c658ed6c1eadc1824347ea76f933e64736f6c634300081100330000000000000000000000000000000000000000000000000000000000000060000000000000000000000000000000000000000000000000000000000000008000000000000000000000000000000000000000000000000000000000000000a0000000000000000000000000000000000000000000000000000000000000000000000000000000000000000000000000000000000000000000000000000000000000000000000000000000000000000000000000000000000000000000000000",
  "immutableReferences": {},
  "source": "pragma solidity ^0.8.14;\n\nimport \"@openzeppelin/contracts/token/ERC721/ERC721.sol\";\nimport \"@openzeppelin/contracts/token/ERC20/ERC20.sol\";\nimport \"@openzeppelin/contracts/access/AccessControl.sol\";\nimport \"@openzeppelin/contracts/token/ERC721/extensions/ERC721Burnable.sol\";\nimport \"@openzeppelin/contracts/token/ERC721/extensions/ERC721URIStorage.sol\";\n\ncontract RTFToken is ERC721, ERC721Burnable, ERC721URIStorage, AccessControl {\n    bytes32 public constant MINTER_ROLE = keccak256(\"MINTER_ROLE\");\n    bytes32 public constant BURNER_ROLE = keccak256(\"BURNER_ROLE\");\n\n    string public baseURI;\n\n    constructor(\n        string memory name,\n        string memory symbol,\n        string memory baseURI\n    ) ERC721(name, symbol) {\n        _setupRole(DEFAULT_ADMIN_ROLE, _msgSender());\n        _setupRole(MINTER_ROLE, _msgSender());\n        _setupRole(BURNER_ROLE, _msgSender());\n\n        _setBaseURI(baseURI);\n    }\n\n    struct Character {\n        string firstName;\n        string lastName;\n        string middleName;\n        uint256 dateOfBirth;\n        string nationality;\n        string gender;\n        string specialization;\n    }\n\n    Character[] public characters;\n\n    mapping(uint256 => uint256) tokenIdToCharacterIndex;\n\n    function mint(\n        address recipient,\n        uint256 tokenID,\n        string memory data\n    ) public onlyRole(MINTER_ROLE) {\n        _mint(recipient, tokenID);\n        _setTokenURI(tokenID, data);\n    }\n\n    function burn(uint256 tokenID)\n    public\n    override(ERC721Burnable)\n    onlyRole(BURNER_ROLE)\n    {\n        _burn(tokenID);\n    }\n\n    function tokenURI(uint256 tokenId)\n    public\n    view\n    virtual\n    override(ERC721, ERC721URIStorage)\n    returns (string memory)\n    {\n        return super.tokenURI(tokenId);\n    }\n\n    function supportsInterface(bytes4 interfaceId)\n    public\n    view\n    override(ERC721, AccessControl)\n    returns (bool)\n    {\n        return super.supportsInterface(interfaceId);\n    }\n\n    function _burn(uint256 tokenId)\n    internal\n    virtual\n    override(ERC721, ERC721URIStorage)\n    {\n        super._burn(tokenId);\n    }\n\n    function _setBaseURI(string memory baseURI_) internal {\n        baseURI = baseURI_;\n    }\n\n    function _baseURI() internal view virtual override returns (string memory) {\n        return baseURI;\n    }\n}",
  "sourcePath": "/Users/dim4egster/work/RTF/Forks/chiliz/v2-genesis-config/contracts/RTFToken.sol",
  "compiler": {
    "name": "solc",
    "version": "0.8.17+commit.8df45f5f.Emscripten.clang"
  },
  "schemaVersion": "3.4.4",
  "updatedAt": "2023-03-30T13:43:19.753Z",
  "devdoc": {
    "kind": "dev",
    "methods": {
      "approve(address,uint256)": {
        "details": "See {IERC721-approve}."
      },
      "balanceOf(address)": {
        "details": "See {IERC721-balanceOf}."
      },
      "getApproved(uint256)": {
        "details": "See {IERC721-getApproved}."
      },
      "getRoleAdmin(bytes32)": {
        "details": "Returns the admin role that controls `role`. See {grantRole} and {revokeRole}. To change a role's admin, use {_setRoleAdmin}."
      },
      "grantRole(bytes32,address)": {
        "details": "Grants `role` to `account`. If `account` had not been already granted `role`, emits a {RoleGranted} event. Requirements: - the caller must have ``role``'s admin role."
      },
      "hasRole(bytes32,address)": {
        "details": "Returns `true` if `account` has been granted `role`."
      },
      "isApprovedForAll(address,address)": {
        "details": "See {IERC721-isApprovedForAll}."
      },
      "name()": {
        "details": "See {IERC721Metadata-name}."
      },
      "ownerOf(uint256)": {
        "details": "See {IERC721-ownerOf}."
      },
      "renounceRole(bytes32,address)": {
        "details": "Revokes `role` from the calling account. Roles are often managed via {grantRole} and {revokeRole}: this function's purpose is to provide a mechanism for accounts to lose their privileges if they are compromised (such as when a trusted device is misplaced). If the calling account had been revoked `role`, emits a {RoleRevoked} event. Requirements: - the caller must be `account`."
      },
      "revokeRole(bytes32,address)": {
        "details": "Revokes `role` from `account`. If `account` had been granted `role`, emits a {RoleRevoked} event. Requirements: - the caller must have ``role``'s admin role."
      },
      "safeTransferFrom(address,address,uint256)": {
        "details": "See {IERC721-safeTransferFrom}."
      },
      "safeTransferFrom(address,address,uint256,bytes)": {
        "details": "See {IERC721-safeTransferFrom}."
      },
      "setApprovalForAll(address,bool)": {
        "details": "See {IERC721-setApprovalForAll}."
      },
      "symbol()": {
        "details": "See {IERC721Metadata-symbol}."
      },
      "transferFrom(address,address,uint256)": {
        "details": "See {IERC721-transferFrom}."
      }
    },
    "version": 1
  },
  "userdoc": {
    "kind": "user",
    "methods": {},
    "version": 1
  }
}